{
  "contractName": "Campaign",
  "abi": [
    {
      "constant": true,
      "inputs": [
        {
          "name": "",
          "type": "address"
        }
      ],
      "name": "pledgers",
      "outputs": [
        {
          "name": "",
          "type": "bool"
        }
      ],
      "payable": false,
      "stateMutability": "view",
      "type": "function",
      "signature": "0x38dd8ea5"
    },
    {
      "constant": true,
      "inputs": [],
      "name": "recipient",
      "outputs": [
        {
          "name": "",
          "type": "address"
        }
      ],
      "payable": false,
      "stateMutability": "view",
      "type": "function",
      "signature": "0x66d003ac"
    },
    {
      "constant": true,
      "inputs": [],
      "name": "rebate",
      "outputs": [
        {
          "name": "",
          "type": "uint256"
        }
      ],
      "payable": false,
      "stateMutability": "view",
      "type": "function",
      "signature": "0x6c9dec23"
    },
    {
      "constant": true,
      "inputs": [],
      "name": "startTime",
      "outputs": [
        {
          "name": "",
          "type": "uint256"
        }
      ],
      "payable": false,
      "stateMutability": "view",
      "type": "function",
      "signature": "0x78e97925"
    },
    {
      "constant": true,
      "inputs": [],
      "name": "maxPledgeAmount",
      "outputs": [
        {
          "name": "",
          "type": "uint256"
        }
      ],
      "payable": false,
      "stateMutability": "view",
      "type": "function",
      "signature": "0x820dc01e"
    },
    {
      "constant": true,
      "inputs": [],
      "name": "targetAmount",
      "outputs": [
        {
          "name": "",
          "type": "uint256"
        }
      ],
      "payable": false,
      "stateMutability": "view",
      "type": "function",
      "signature": "0x953b8fb8"
    },
    {
      "constant": true,
      "inputs": [],
      "name": "campaignPeriod",
      "outputs": [
        {
          "name": "",
          "type": "uint256"
        }
      ],
      "payable": false,
      "stateMutability": "view",
      "type": "function",
      "signature": "0xbc7be4a3"
    },
    {
      "inputs": [
        {
          "name": "_targetAmount",
          "type": "uint256"
        },
        {
          "name": "_campaignPeriod",
          "type": "uint256"
        },
        {
          "name": "_maxPledgeAmount",
          "type": "uint256"
        }
      ],
      "payable": false,
      "stateMutability": "nonpayable",
      "type": "constructor",
      "signature": "constructor"
    },
    {
      "payable": true,
      "stateMutability": "payable",
      "type": "fallback"
    },
    {
      "anonymous": false,
      "inputs": [
        {
          "indexed": false,
          "name": "_pledger",
          "type": "address"
        }
      ],
      "name": "pledgedEvent",
      "type": "event",
      "signature": "0xaa605a8b4f1cebd144fdd5a012a0f3d3037358520eaf5a7abf42a8c72479cd9b"
    },
    {
      "constant": true,
      "inputs": [],
      "name": "elapsedTime",
      "outputs": [
        {
          "name": "",
          "type": "uint256"
        }
      ],
      "payable": false,
      "stateMutability": "view",
      "type": "function",
      "signature": "0x51453f9d"
    },
    {
      "constant": true,
      "inputs": [],
      "name": "remainingTime",
      "outputs": [
        {
          "name": "",
          "type": "uint256"
        }
      ],
      "payable": false,
      "stateMutability": "view",
      "type": "function",
      "signature": "0xacc4bd08"
    },
    {
      "constant": true,
      "inputs": [],
      "name": "getNow",
      "outputs": [
        {
          "name": "",
          "type": "uint256"
        }
      ],
      "payable": false,
      "stateMutability": "view",
      "type": "function",
      "signature": "0xbbe4fd50"
    },
    {
      "constant": false,
      "inputs": [],
      "name": "pledge",
      "outputs": [],
      "payable": true,
      "stateMutability": "payable",
      "type": "function",
      "signature": "0x88ffe867"
    },
    {
      "constant": false,
      "inputs": [],
      "name": "redeemFunds",
      "outputs": [],
      "payable": false,
      "stateMutability": "nonpayable",
      "type": "function",
      "signature": "0x216355ec"
    },
    {
      "constant": false,
      "inputs": [],
      "name": "redeemRebate",
      "outputs": [],
      "payable": false,
      "stateMutability": "nonpayable",
      "type": "function",
      "signature": "0x5ca586e8"
    },
    {
      "constant": false,
      "inputs": [],
      "name": "redeemRefund",
      "outputs": [],
      "payable": false,
      "stateMutability": "nonpayable",
      "type": "function",
      "signature": "0x864e90e3"
    },
    {
      "constant": false,
      "inputs": [],
      "name": "redeem",
      "outputs": [],
      "payable": false,
      "stateMutability": "nonpayable",
      "type": "function",
      "signature": "0xbe040fb0"
    }
  ],
  "bytecode": "0x608060405234801561001057600080fd5b50604051606080610b178339810180604052606081101561003057600080fd5b81019080805190602001909291908051906020019092919080519060200190929190505050336000806101000a81548173ffffffffffffffffffffffffffffffffffffffff021916908373ffffffffffffffffffffffffffffffffffffffff16021790555042600381905550826001819055508160048190555080600281905550505050610a54806100c36000396000f3fe6080604052600436106100db576000357c0100000000000000000000000000000000000000000000000000000000900463ffffffff168063216355ec146100dd57806338dd8ea5146100f457806351453f9d1461015d5780635ca586e81461018857806366d003ac1461019f5780636c9dec23146101f657806378e9792514610221578063820dc01e1461024c578063864e90e31461027757806388ffe8671461028e578063953b8fb814610298578063acc4bd08146102c3578063bbe4fd50146102ee578063bc7be4a314610319578063be040fb014610344575b005b3480156100e957600080fd5b506100f261035b565b005b34801561010057600080fd5b506101436004803603602081101561011757600080fd5b81019080803573ffffffffffffffffffffffffffffffffffffffff169060200190929190505050610495565b604051808215151515815260200191505060405180910390f35b34801561016957600080fd5b506101726104b5565b6040518082815260200191505060405180910390f35b34801561019457600080fd5b5061019d6104c1565b005b3480156101ab57600080fd5b506101b46105f9565b604051808273ffffffffffffffffffffffffffffffffffffffff1673ffffffffffffffffffffffffffffffffffffffff16815260200191505060405180910390f35b34801561020257600080fd5b5061020b61061e565b6040518082815260200191505060405180910390f35b34801561022d57600080fd5b50610236610624565b6040518082815260200191505060405180910390f35b34801561025857600080fd5b5061026161062a565b6040518082815260200191505060405180910390f35b34801561028357600080fd5b5061028c610630565b005b610296610767565b005b3480156102a457600080fd5b506102ad610946565b6040518082815260200191505060405180910390f35b3480156102cf57600080fd5b506102d861094c565b6040518082815260200191505060405180910390f35b3480156102fa57600080fd5b5061030361095f565b6040518082815260200191505060405180910390f35b34801561032557600080fd5b5061032e610967565b6040518082815260200191505060405180910390f35b34801561035057600080fd5b5061035961096d565b005b60045460035442031015151561037057600080fd5b6001543073ffffffffffffffffffffffffffffffffffffffff16311015151561039857600080fd5b6000809054906101000a900473ffffffffffffffffffffffffffffffffffffffff1673ffffffffffffffffffffffffffffffffffffffff163373ffffffffffffffffffffffffffffffffffffffff161415156103f357600080fd5b60006002543073ffffffffffffffffffffffffffffffffffffffff163181151561041957fe5b049050806001543073ffffffffffffffffffffffffffffffffffffffff16310381151561044257fe5b046006819055503373ffffffffffffffffffffffffffffffffffffffff166108fc6001549081150290604051600060405180830381858888f19350505050158015610491573d6000803e3d6000fd5b5050565b60056020528060005260406000206000915054906101000a900460ff1681565b60006003544203905090565b6004546003544203101515156104d657600080fd5b6001543073ffffffffffffffffffffffffffffffffffffffff1631101515156104fe57600080fd5b600560003373ffffffffffffffffffffffffffffffffffffffff1673ffffffffffffffffffffffffffffffffffffffff16815260200190815260200160002060009054906101000a900460ff16151561055657600080fd5b3373ffffffffffffffffffffffffffffffffffffffff166108fc6006549081150290604051600060405180830381858888f1935050505015801561059e573d6000803e3d6000fd5b506000600560003373ffffffffffffffffffffffffffffffffffffffff1673ffffffffffffffffffffffffffffffffffffffff16815260200190815260200160002060006101000a81548160ff021916908315150217905550565b6000809054906101000a900473ffffffffffffffffffffffffffffffffffffffff1681565b60065481565b60035481565b60025481565b60045460035442031015151561064557600080fd5b6001543073ffffffffffffffffffffffffffffffffffffffff163110151561066c57600080fd5b600560003373ffffffffffffffffffffffffffffffffffffffff1673ffffffffffffffffffffffffffffffffffffffff16815260200190815260200160002060009054906101000a900460ff1615156106c457600080fd5b3373ffffffffffffffffffffffffffffffffffffffff166108fc6002549081150290604051600060405180830381858888f1935050505015801561070c573d6000803e3d6000fd5b506000600560003373ffffffffffffffffffffffffffffffffffffffff1673ffffffffffffffffffffffffffffffffffffffff16815260200190815260200160002060006101000a81548160ff021916908315150217905550565b600454600354420310151561077b57600080fd5b600560003373ffffffffffffffffffffffffffffffffffffffff1673ffffffffffffffffffffffffffffffffffffffff16815260200190815260200160002060009054906101000a900460ff161515156107d457600080fd5b6000809054906101000a900473ffffffffffffffffffffffffffffffffffffffff1673ffffffffffffffffffffffffffffffffffffffff163373ffffffffffffffffffffffffffffffffffffffff161415151561083057600080fd5b6002543414151561084057600080fd5b3073ffffffffffffffffffffffffffffffffffffffff166108fc6002549081150290604051600060405180830381858888f19350505050158015610888573d6000803e3d6000fd5b506001600560003373ffffffffffffffffffffffffffffffffffffffff1673ffffffffffffffffffffffffffffffffffffffff16815260200190815260200160002060006101000a81548160ff0219169083151502179055507faa605a8b4f1cebd144fdd5a012a0f3d3037358520eaf5a7abf42a8c72479cd9b33604051808273ffffffffffffffffffffffffffffffffffffffff1673ffffffffffffffffffffffffffffffffffffffff16815260200191505060405180910390a1565b60015481565b60006109566104b5565b60045403905090565b600042905090565b60045481565b6000809054906101000a900473ffffffffffffffffffffffffffffffffffffffff1673ffffffffffffffffffffffffffffffffffffffff163373ffffffffffffffffffffffffffffffffffffffff161415156109c857600080fd5b3373ffffffffffffffffffffffffffffffffffffffff166108fc3073ffffffffffffffffffffffffffffffffffffffff16319081150290604051600060405180830381858888f19350505050158015610a25573d6000803e3d6000fd5b5056fea165627a7a723058205b2ff963d3aeb1e6a63aead0727bfc51635dd03a446635cefee927d209209da70029",
  "source": "pragma solidity ^0.5.0;\r\n\r\ncontract Campaign {\r\n  address public recipient;\r\n\r\n  uint256 public targetAmount;\r\n  uint256 public maxPledgeAmount;\r\n\r\n  uint public startTime;\r\n  uint public campaignPeriod;\r\n\r\n  function elapsedTime () public view returns (uint) {\r\n    return now - startTime;\r\n  }\r\n\r\n  function remainingTime () public view returns (uint) {\r\n    return campaignPeriod - elapsedTime();\r\n  }\r\n\r\n  function getNow () public view returns (uint256) {\r\n    return now;\r\n  }\r\n\r\n  mapping (address => bool) public pledgers;\r\n  uint public rebate;\r\n\r\n  constructor (uint256 _targetAmount, uint _campaignPeriod, uint256 _maxPledgeAmount) public {\r\n    recipient = msg.sender;\r\n\r\n    startTime = now;\r\n\r\n    targetAmount = _targetAmount;\r\n    campaignPeriod = _campaignPeriod;\r\n    maxPledgeAmount = _maxPledgeAmount;\r\n  }\r\n\r\n\r\n  // MODIFIERS\r\n\r\n  modifier pastDeadline {\r\n    require(now - startTime >= campaignPeriod);\r\n    _;\r\n  }\r\n  modifier notPassedDeadline {\r\n    require(now - startTime < campaignPeriod);\r\n    _;\r\n  }\r\n\r\n  modifier campaignSuccessful {\r\n    require(address(this).balance >= targetAmount);\r\n    _;\r\n  }\r\n  modifier campaignUnsuccessful {\r\n    require (address(this).balance < targetAmount);\r\n    _;\r\n  }\r\n\r\n  modifier isRecipient {\r\n    require(msg.sender == recipient);\r\n    _;\r\n  }\r\n  modifier isNotRecipient {\r\n    require(msg.sender != recipient);\r\n    _;\r\n  }\r\n\r\n  modifier isPledger {\r\n    require(pledgers[msg.sender]);\r\n    _;\r\n  }\r\n  modifier isNotPledger {\r\n    require(!pledgers[msg.sender]);\r\n    _;\r\n  }\r\n\r\n\r\n  // PLEDGING\r\n\r\n  event pledgedEvent (\r\n    address _pledger\r\n  );\r\n\r\n  function () external payable {\r\n\r\n  }\r\n\r\n  function pledge () payable public notPassedDeadline isNotPledger isNotRecipient {\r\n    require(msg.value == maxPledgeAmount);\r\n    address(this).transfer(maxPledgeAmount);\r\n    \r\n    pledgers[msg.sender] = true;\r\n\r\n    emit pledgedEvent(\r\n      msg.sender\r\n    );\r\n  }\r\n\r\n\r\n  // TRANSATIONS\r\n\r\n  function redeemFunds () public pastDeadline campaignSuccessful isRecipient {\r\n    uint pledgeCount = address(this).balance / maxPledgeAmount;\r\n    rebate = (address(this).balance - targetAmount) / pledgeCount; \r\n    msg.sender.transfer(targetAmount);\r\n  }\r\n  function redeemRebate () public pastDeadline campaignSuccessful isPledger {\r\n    msg.sender.transfer(rebate);\r\n    pledgers[msg.sender] = false;\r\n  }\r\n  function redeemRefund () public pastDeadline campaignUnsuccessful isPledger {\r\n    msg.sender.transfer(maxPledgeAmount);\r\n    pledgers[msg.sender] = false;\r\n  }\r\n\r\n  function redeem () public isRecipient {\r\n    msg.sender.transfer(address(this).balance);\r\n  }\r\n}",
  "sourcePath": "C:/Users/carto/Documents/GitHub/Penny-Seed/contracts/Campaign.sol",
  "compiler": {
    "name": "solc",
    "version": "0.5.0+commit.1d4f565a.Emscripten.clang"
  },
  "schemaVersion": "3.0.8",
  "updatedAt": "2019-04-28T05:12:38.615Z",
  "devdoc": {
    "methods": {}
  },
  "userdoc": {
    "methods": {}
  }
}