{
  "contractName": "Campaign",
  "abi": [
    {
      "constant": true,
      "inputs": [
        {
          "name": "",
          "type": "address"
        }
      ],
      "name": "pledgers",
      "outputs": [
        {
          "name": "",
          "type": "bool"
        }
      ],
      "payable": false,
      "stateMutability": "view",
      "type": "function",
      "signature": "0x38dd8ea5"
    },
    {
      "constant": true,
      "inputs": [],
      "name": "recipient",
      "outputs": [
        {
          "name": "",
          "type": "address"
        }
      ],
      "payable": false,
      "stateMutability": "view",
      "type": "function",
      "signature": "0x66d003ac"
    },
    {
      "constant": true,
      "inputs": [],
      "name": "rebate",
      "outputs": [
        {
          "name": "",
          "type": "uint256"
        }
      ],
      "payable": false,
      "stateMutability": "view",
      "type": "function",
      "signature": "0x6c9dec23"
    },
    {
      "constant": true,
      "inputs": [],
      "name": "startTime",
      "outputs": [
        {
          "name": "",
          "type": "uint256"
        }
      ],
      "payable": false,
      "stateMutability": "view",
      "type": "function",
      "signature": "0x78e97925"
    },
    {
      "constant": true,
      "inputs": [],
      "name": "maxPledgeAmount",
      "outputs": [
        {
          "name": "",
          "type": "uint256"
        }
      ],
      "payable": false,
      "stateMutability": "view",
      "type": "function",
      "signature": "0x820dc01e"
    },
    {
      "constant": true,
      "inputs": [],
      "name": "targetAmount",
      "outputs": [
        {
          "name": "",
          "type": "uint256"
        }
      ],
      "payable": false,
      "stateMutability": "view",
      "type": "function",
      "signature": "0x953b8fb8"
    },
    {
      "constant": true,
      "inputs": [],
      "name": "campaignPeriod",
      "outputs": [
        {
          "name": "",
          "type": "uint256"
        }
      ],
      "payable": false,
      "stateMutability": "view",
      "type": "function",
      "signature": "0xbc7be4a3"
    },
    {
      "inputs": [
        {
          "name": "_targetAmount",
          "type": "uint256"
        },
        {
          "name": "_campaignPeriod",
          "type": "uint256"
        },
        {
          "name": "_maxPledgeAmount",
          "type": "uint256"
        }
      ],
      "payable": false,
      "stateMutability": "nonpayable",
      "type": "constructor",
      "signature": "constructor"
    },
    {
      "payable": true,
      "stateMutability": "payable",
      "type": "fallback"
    },
    {
      "anonymous": false,
      "inputs": [
        {
          "indexed": false,
          "name": "_pledger",
          "type": "address"
        }
      ],
      "name": "pledgedEvent",
      "type": "event",
      "signature": "0xaa605a8b4f1cebd144fdd5a012a0f3d3037358520eaf5a7abf42a8c72479cd9b"
    },
    {
      "constant": false,
      "inputs": [],
      "name": "pledge",
      "outputs": [],
      "payable": true,
      "stateMutability": "payable",
      "type": "function",
      "signature": "0x88ffe867"
    },
    {
      "constant": false,
      "inputs": [],
      "name": "redeemFunds",
      "outputs": [],
      "payable": false,
      "stateMutability": "nonpayable",
      "type": "function",
      "signature": "0x216355ec"
    },
    {
      "constant": false,
      "inputs": [],
      "name": "redeemRebate",
      "outputs": [],
      "payable": false,
      "stateMutability": "nonpayable",
      "type": "function",
      "signature": "0x5ca586e8"
    },
    {
      "constant": false,
      "inputs": [],
      "name": "redeemRefund",
      "outputs": [],
      "payable": false,
      "stateMutability": "nonpayable",
      "type": "function",
      "signature": "0x864e90e3"
    }
  ],
  "bytecode": "0x608060405234801561001057600080fd5b506040516060806109718339810180604052606081101561003057600080fd5b81019080805190602001909291908051906020019092919080519060200190929190505050336000806101000a81548173ffffffffffffffffffffffffffffffffffffffff021916908373ffffffffffffffffffffffffffffffffffffffff160217905550426003819055508260018190555081600481905550806002819055505050506108ae806100c36000396000f3fe6080604052600436106100af576000357c0100000000000000000000000000000000000000000000000000000000900463ffffffff168063216355ec146100b157806338dd8ea5146100c85780635ca586e81461013157806366d003ac146101485780636c9dec231461019f57806378e97925146101ca578063820dc01e146101f5578063864e90e31461022057806388ffe86714610237578063953b8fb814610241578063bc7be4a31461026c575b005b3480156100bd57600080fd5b506100c6610297565b005b3480156100d457600080fd5b50610117600480360360208110156100eb57600080fd5b81019080803573ffffffffffffffffffffffffffffffffffffffff1690602001909291905050506103d1565b604051808215151515815260200191505060405180910390f35b34801561013d57600080fd5b506101466103f1565b005b34801561015457600080fd5b5061015d610529565b604051808273ffffffffffffffffffffffffffffffffffffffff1673ffffffffffffffffffffffffffffffffffffffff16815260200191505060405180910390f35b3480156101ab57600080fd5b506101b461054e565b6040518082815260200191505060405180910390f35b3480156101d657600080fd5b506101df610554565b6040518082815260200191505060405180910390f35b34801561020157600080fd5b5061020a61055a565b6040518082815260200191505060405180910390f35b34801561022c57600080fd5b50610235610560565b005b61023f610697565b005b34801561024d57600080fd5b50610256610876565b6040518082815260200191505060405180910390f35b34801561027857600080fd5b5061028161087c565b6040518082815260200191505060405180910390f35b6004546003544203101515156102ac57600080fd5b6001543073ffffffffffffffffffffffffffffffffffffffff1631101515156102d457600080fd5b6000809054906101000a900473ffffffffffffffffffffffffffffffffffffffff1673ffffffffffffffffffffffffffffffffffffffff163373ffffffffffffffffffffffffffffffffffffffff1614151561032f57600080fd5b60006002543073ffffffffffffffffffffffffffffffffffffffff163181151561035557fe5b049050806001543073ffffffffffffffffffffffffffffffffffffffff16310381151561037e57fe5b046006819055503373ffffffffffffffffffffffffffffffffffffffff166108fc6001549081150290604051600060405180830381858888f193505050501580156103cd573d6000803e3d6000fd5b5050565b60056020528060005260406000206000915054906101000a900460ff1681565b60045460035442031015151561040657600080fd5b6001543073ffffffffffffffffffffffffffffffffffffffff16311015151561042e57600080fd5b600560003373ffffffffffffffffffffffffffffffffffffffff1673ffffffffffffffffffffffffffffffffffffffff16815260200190815260200160002060009054906101000a900460ff16151561048657600080fd5b3373ffffffffffffffffffffffffffffffffffffffff166108fc6006549081150290604051600060405180830381858888f193505050501580156104ce573d6000803e3d6000fd5b506000600560003373ffffffffffffffffffffffffffffffffffffffff1673ffffffffffffffffffffffffffffffffffffffff16815260200190815260200160002060006101000a81548160ff021916908315150217905550565b6000809054906101000a900473ffffffffffffffffffffffffffffffffffffffff1681565b60065481565b60035481565b60025481565b60045460035442031015151561057557600080fd5b6001543073ffffffffffffffffffffffffffffffffffffffff163110151561059c57600080fd5b600560003373ffffffffffffffffffffffffffffffffffffffff1673ffffffffffffffffffffffffffffffffffffffff16815260200190815260200160002060009054906101000a900460ff1615156105f457600080fd5b3373ffffffffffffffffffffffffffffffffffffffff166108fc6002549081150290604051600060405180830381858888f1935050505015801561063c573d6000803e3d6000fd5b506000600560003373ffffffffffffffffffffffffffffffffffffffff1673ffffffffffffffffffffffffffffffffffffffff16815260200190815260200160002060006101000a81548160ff021916908315150217905550565b60045460035442031015156106ab57600080fd5b600560003373ffffffffffffffffffffffffffffffffffffffff1673ffffffffffffffffffffffffffffffffffffffff16815260200190815260200160002060009054906101000a900460ff1615151561070457600080fd5b6000809054906101000a900473ffffffffffffffffffffffffffffffffffffffff1673ffffffffffffffffffffffffffffffffffffffff163373ffffffffffffffffffffffffffffffffffffffff161415151561076057600080fd5b6002543414151561077057600080fd5b3073ffffffffffffffffffffffffffffffffffffffff166108fc6002549081150290604051600060405180830381858888f193505050501580156107b8573d6000803e3d6000fd5b506001600560003373ffffffffffffffffffffffffffffffffffffffff1673ffffffffffffffffffffffffffffffffffffffff16815260200190815260200160002060006101000a81548160ff0219169083151502179055507faa605a8b4f1cebd144fdd5a012a0f3d3037358520eaf5a7abf42a8c72479cd9b33604051808273ffffffffffffffffffffffffffffffffffffffff1673ffffffffffffffffffffffffffffffffffffffff16815260200191505060405180910390a1565b60015481565b6004548156fea165627a7a7230582046b772e9c6a7b47cc56aa5ceafa35afecfde604ee34ac01010c5b2d1157a970d0029",
  "source": "pragma solidity ^0.5.0;\n\ncontract Campaign {\n  address public recipient;\n\n  uint256 public targetAmount;\n  uint256 public maxPledgeAmount;\n\n  uint public startTime;\n  uint public campaignPeriod;\n\n  mapping (address => bool) public pledgers;\n  uint public rebate;\n\n  constructor (uint256 _targetAmount, uint _campaignPeriod, uint256 _maxPledgeAmount) public {\n    recipient = msg.sender;\n\n    startTime = now;\n\n    targetAmount = _targetAmount;\n    campaignPeriod = _campaignPeriod;\n    maxPledgeAmount = _maxPledgeAmount;\n  }\n\n\n  // MODIFIERS\n\n  modifier pastDeadline {\n    require(now - startTime >= campaignPeriod);\n    _;\n  }\n  modifier notPassedDeadline {\n    require(now - startTime < campaignPeriod);\n    _;\n  }\n\n  modifier campaignSuccessful {\n    require(address(this).balance >= targetAmount);\n    _;\n  }\n  modifier campaignUnsuccessful {\n    require (address(this).balance < targetAmount);\n    _;\n  }\n\n  modifier isRecipient {\n    require(msg.sender == recipient);\n    _;\n  }\n  modifier isNotRecipient {\n    require(msg.sender != recipient);\n    _;\n  }\n\n  modifier isPledger {\n    require(pledgers[msg.sender]);\n    _;\n  }\n  modifier isNotPledger {\n    require(!pledgers[msg.sender]);\n    _;\n  }\n\n\n  // PLEDGING\n\n  event pledgedEvent (\n    address _pledger\n  );\n\n  function () external payable {\n\n  }\n\n  function pledge () payable public notPassedDeadline isNotPledger isNotRecipient {\n    require(msg.value == maxPledgeAmount);\n    address(this).transfer(maxPledgeAmount);\n    \n    pledgers[msg.sender] = true;\n\n    emit pledgedEvent(\n      msg.sender\n    );\n  }\n\n\n  // TRANSATIONS\n\n  function redeemFunds () public pastDeadline campaignSuccessful isRecipient {\n    uint pledgeCount = address(this).balance / maxPledgeAmount;\n    rebate = (address(this).balance - targetAmount) / pledgeCount; \n    msg.sender.transfer(targetAmount);\n  }\n  function redeemRebate () public pastDeadline campaignSuccessful isPledger {\n    msg.sender.transfer(rebate);\n    pledgers[msg.sender] = false;\n  }\n  function redeemRefund () public pastDeadline campaignUnsuccessful isPledger {\n    msg.sender.transfer(maxPledgeAmount);\n    pledgers[msg.sender] = false;\n  }\n}",
  "sourcePath": "C:/Users/carto/Documents/GitHub/Penny-Seed-dAPP/contracts/Campaign.sol",
  "compiler": {
    "name": "solc",
    "version": "0.5.0+commit.1d4f565a.Emscripten.clang"
  },
  "schemaVersion": "3.0.8",
  "updatedAt": "2019-04-27T03:18:48.301Z",
  "devdoc": {
    "methods": {}
  },
  "userdoc": {
    "methods": {}
  }
}