{
  "contractName": "PennySeed",
  "abi": [
    {
      "constant": true,
      "inputs": [],
      "name": "numberOfCampaigns",
      "outputs": [
        {
          "name": "",
          "type": "uint256"
        }
      ],
      "payable": false,
      "stateMutability": "view",
      "type": "function",
      "signature": "0x07ca140d"
    },
    {
      "constant": true,
      "inputs": [
        {
          "name": "",
          "type": "uint256"
        }
      ],
      "name": "campaigns",
      "outputs": [
        {
          "name": "beneficiary",
          "type": "address"
        },
        {
          "name": "goal",
          "type": "uint256"
        },
        {
          "name": "balance",
          "type": "uint256"
        },
        {
          "name": "startTime",
          "type": "uint256"
        },
        {
          "name": "campaignPeriod",
          "type": "uint256"
        },
        {
          "name": "hasClaimed",
          "type": "bool"
        },
        {
          "name": "pledgeAmount",
          "type": "uint256"
        },
        {
          "name": "numberOfPledgers",
          "type": "uint256"
        }
      ],
      "payable": false,
      "stateMutability": "view",
      "type": "function",
      "signature": "0x141961bc"
    },
    {
      "constant": true,
      "inputs": [],
      "name": "owner",
      "outputs": [
        {
          "name": "",
          "type": "address"
        }
      ],
      "payable": false,
      "stateMutability": "view",
      "type": "function",
      "signature": "0x8da5cb5b"
    },
    {
      "inputs": [],
      "payable": false,
      "stateMutability": "nonpayable",
      "type": "constructor",
      "signature": "constructor"
    },
    {
      "payable": true,
      "stateMutability": "payable",
      "type": "fallback"
    },
    {
      "anonymous": false,
      "inputs": [
        {
          "indexed": true,
          "name": "_campaignIndex",
          "type": "uint256"
        },
        {
          "indexed": true,
          "name": "_beneficiary",
          "type": "address"
        },
        {
          "indexed": false,
          "name": "_goal",
          "type": "uint256"
        },
        {
          "indexed": false,
          "name": "_balance",
          "type": "uint256"
        },
        {
          "indexed": false,
          "name": "_startTime",
          "type": "uint256"
        },
        {
          "indexed": false,
          "name": "_campaignPeriod",
          "type": "uint256"
        },
        {
          "indexed": false,
          "name": "_pledgeAmount",
          "type": "uint256"
        }
      ],
      "name": "CreatedCampaignEvent",
      "type": "event",
      "signature": "0x4c4854bb847d28766286855bff1a9b69b5416932f31bb594466c0bf1ee4daca7"
    },
    {
      "anonymous": false,
      "inputs": [
        {
          "indexed": true,
          "name": "_campaignIndex",
          "type": "uint256"
        },
        {
          "indexed": true,
          "name": "_pledger",
          "type": "address"
        },
        {
          "indexed": false,
          "name": "_pledgeAmount",
          "type": "uint256"
        },
        {
          "indexed": false,
          "name": "_balance",
          "type": "uint256"
        },
        {
          "indexed": false,
          "name": "_numberOfPledgers",
          "type": "uint256"
        }
      ],
      "name": "PledgedToCampaignEvent",
      "type": "event",
      "signature": "0x2cfaa5804a1c2061abb203b223be8a1281c2e15656094b9907cc096db4f14ade"
    },
    {
      "anonymous": false,
      "inputs": [
        {
          "indexed": true,
          "name": "_campaignIndex",
          "type": "uint256"
        },
        {
          "indexed": false,
          "name": "_goal",
          "type": "uint256"
        },
        {
          "indexed": false,
          "name": "_balance",
          "type": "uint256"
        },
        {
          "indexed": false,
          "name": "_numberOfPledgers",
          "type": "uint256"
        }
      ],
      "name": "ReachedGoalEvent",
      "type": "event",
      "signature": "0xb920dd6bfae898046b8da32f3ffd1d7cac4b7f1bc4060f6380ee066377b9bc2c"
    },
    {
      "anonymous": false,
      "inputs": [
        {
          "indexed": true,
          "name": "_campaignIndex",
          "type": "uint256"
        },
        {
          "indexed": true,
          "name": "_beneficiary",
          "type": "address"
        },
        {
          "indexed": false,
          "name": "_goal",
          "type": "uint256"
        },
        {
          "indexed": false,
          "name": "_balance",
          "type": "uint256"
        }
      ],
      "name": "ClaimedFundsEvent",
      "type": "event",
      "signature": "0x6daee0e728fb8c5bc0cf4f1aff87fb0959128ddad702353e92fcec8ea336bf02"
    },
    {
      "anonymous": false,
      "inputs": [
        {
          "indexed": true,
          "name": "_campaignIndex",
          "type": "uint256"
        },
        {
          "indexed": true,
          "name": "_pledger",
          "type": "address"
        },
        {
          "indexed": false,
          "name": "_rebateAmount",
          "type": "uint256"
        }
      ],
      "name": "RedeemedRebateEvent",
      "type": "event",
      "signature": "0x12dca7554333fa4ad21e3b145df61273b0a395e857132155c5946c1a4e773be8"
    },
    {
      "anonymous": false,
      "inputs": [
        {
          "indexed": true,
          "name": "_campaignIndex",
          "type": "uint256"
        },
        {
          "indexed": true,
          "name": "_pledger",
          "type": "address"
        },
        {
          "indexed": false,
          "name": "_refundAmount",
          "type": "uint256"
        }
      ],
      "name": "RedeemedRefundEvent",
      "type": "event",
      "signature": "0x1a92de16999f962803b66ec4a95a8332d6de861aa9804c19d840566dd8760ea9"
    },
    {
      "anonymous": false,
      "inputs": [
        {
          "indexed": true,
          "name": "_campaignIndex",
          "type": "uint256"
        },
        {
          "indexed": false,
          "name": "_hasReachedGoal",
          "type": "bool"
        },
        {
          "indexed": false,
          "name": "_goal",
          "type": "uint256"
        },
        {
          "indexed": false,
          "name": "_balance",
          "type": "uint256"
        }
      ],
      "name": "DeadlineHasPassedEvent",
      "type": "event",
      "signature": "0x90245898b9ba6315d426fe909e1ba27e42470d2c412b3cfd71723105e896cc84"
    },
    {
      "constant": false,
      "inputs": [
        {
          "name": "_goal",
          "type": "uint256"
        },
        {
          "name": "_pledgeAmount",
          "type": "uint256"
        },
        {
          "name": "_campaignPeriod",
          "type": "uint256"
        }
      ],
      "name": "createCampaign",
      "outputs": [],
      "payable": false,
      "stateMutability": "nonpayable",
      "type": "function",
      "signature": "0xf69d3158"
    },
    {
      "constant": false,
      "inputs": [
        {
          "name": "_campaignIndex",
          "type": "uint256"
        }
      ],
      "name": "pledgeToCampaign",
      "outputs": [],
      "payable": true,
      "stateMutability": "payable",
      "type": "function",
      "signature": "0x27d4af01"
    },
    {
      "constant": false,
      "inputs": [
        {
          "name": "_campaignIndex",
          "type": "uint256"
        }
      ],
      "name": "approveRetroactivePledge",
      "outputs": [],
      "payable": false,
      "stateMutability": "nonpayable",
      "type": "function",
      "signature": "0x38c543af"
    },
    {
      "constant": false,
      "inputs": [
        {
          "name": "_campaignIndex",
          "type": "uint256"
        }
      ],
      "name": "pollForDeadline",
      "outputs": [],
      "payable": false,
      "stateMutability": "nonpayable",
      "type": "function",
      "signature": "0x1a48cc06"
    },
    {
      "constant": false,
      "inputs": [
        {
          "name": "_campaignIndex",
          "type": "uint256"
        }
      ],
      "name": "claimFunds",
      "outputs": [],
      "payable": false,
      "stateMutability": "nonpayable",
      "type": "function",
      "signature": "0x1b55e338"
    },
    {
      "constant": false,
      "inputs": [
        {
          "name": "_campaignIndex",
          "type": "uint256"
        }
      ],
      "name": "redeemRebate",
      "outputs": [],
      "payable": false,
      "stateMutability": "nonpayable",
      "type": "function",
      "signature": "0xdb56729c"
    },
    {
      "constant": false,
      "inputs": [
        {
          "name": "_campaignIndex",
          "type": "uint256"
        }
      ],
      "name": "redeemRefund",
      "outputs": [],
      "payable": false,
      "stateMutability": "nonpayable",
      "type": "function",
      "signature": "0x8611a79b"
    }
  ],
  "bytecode": "0x608060405234801561001057600080fd5b50336000806101000a81548173ffffffffffffffffffffffffffffffffffffffff021916908373ffffffffffffffffffffffffffffffffffffffff160217905550611778806100606000396000f3fe6080604052600436106100a4576000357c0100000000000000000000000000000000000000000000000000000000900463ffffffff16806307ca140d146100a6578063141961bc146100d15780631a48cc06146101815780631b55e338146101bc57806327d4af01146101f757806338c543af146102255780638611a79b146102605780638da5cb5b1461029b578063db56729c146102f2578063f69d31581461032d575b005b3480156100b257600080fd5b506100bb61037c565b6040518082815260200191505060405180910390f35b3480156100dd57600080fd5b5061010a600480360360208110156100f457600080fd5b8101908080359060200190929190505050610382565b604051808973ffffffffffffffffffffffffffffffffffffffff1673ffffffffffffffffffffffffffffffffffffffff168152602001888152602001878152602001868152602001858152602001841515151581526020018381526020018281526020019850505050505050505060405180910390f35b34801561018d57600080fd5b506101ba600480360360208110156101a457600080fd5b81019080803590602001909291905050506103f7565b005b3480156101c857600080fd5b506101f5600480360360208110156101df57600080fd5b8101908080359060200190929190505050610548565b005b6102236004803603602081101561020d57600080fd5b810190808035906020019092919050505061080c565b005b34801561023157600080fd5b5061025e6004803603602081101561024857600080fd5b8101908080359060200190929190505050610dca565b005b34801561026c57600080fd5b506102996004803603602081101561028357600080fd5b8101908080359060200190929190505050610ea8565b005b3480156102a757600080fd5b506102b0611201565b604051808273ffffffffffffffffffffffffffffffffffffffff1673ffffffffffffffffffffffffffffffffffffffff16815260200191505060405180910390f35b3480156102fe57600080fd5b5061032b6004803603602081101561031557600080fd5b8101908080359060200190929190505050611226565b005b34801561033957600080fd5b5061037a6004803603606081101561035057600080fd5b810190808035906020019092919080359060200190929190803590602001909291905050506115b2565b005b60025481565b60016020528060005260406000206000915090508060000160009054906101000a900473ffffffffffffffffffffffffffffffffffffffff16908060010154908060020154908060030154908060040154908060050160009054906101000a900460ff16908060060154908060070154905088565b8060016000828152602001908152602001600020600401546001600083815260200190815260200160002060030154014211151561049d576040517f08c379a00000000000000000000000000000000000000000000000000000000081526004018080602001828103825260178152602001807f646561646c696e6520686173206e6f742070617373656400000000000000000081525060200191505060405180910390fd5b817f90245898b9ba6315d426fe909e1ba27e42470d2c412b3cfd71723105e896cc84600160008581526020019081526020016000206001015460016000868152602001908152602001600020600201541015600160008681526020019081526020016000206001015460016000878152602001908152602001600020600201546040518084151515158152602001838152602001828152602001935050505060405180910390a25050565b8060016000828152602001908152602001600020600101546001600083815260200190815260200160002060020154101515156105ed576040517f08c379a00000000000000000000000000000000000000000000000000000000081526004018080602001828103825260198152602001807f676f616c20686173206e6f74206265656e20726561636865640000000000000081525060200191505060405180910390fd5b816001600082815260200190815260200160002060000160009054906101000a900473ffffffffffffffffffffffffffffffffffffffff1673ffffffffffffffffffffffffffffffffffffffff163373ffffffffffffffffffffffffffffffffffffffff161415156106c7576040517f08c379a00000000000000000000000000000000000000000000000000000000081526004018080602001828103825260198152602001807f63616c6c6564206279206e6f6e2d62656e65666963696172790000000000000081525060200191505060405180910390fd5b826001600082815260200190815260200160002060050160009054906101000a900460ff161515156106f857600080fd5b3373ffffffffffffffffffffffffffffffffffffffff166108fc60016000878152602001908152602001600020600101549081150290604051600060405180830381858888f19350505050158015610754573d6000803e3d6000fd5b50600180600086815260200190815260200160002060050160006101000a81548160ff0219169083151502179055503373ffffffffffffffffffffffffffffffffffffffff16847f6daee0e728fb8c5bc0cf4f1aff87fb0959128ddad702353e92fcec8ea336bf0260016000888152602001908152602001600020600101546001600089815260200190815260200160002060020154604051808381526020018281526020019250505060405180910390a350505050565b806001600082815260200190815260200160002060000160009054906101000a900473ffffffffffffffffffffffffffffffffffffffff1673ffffffffffffffffffffffffffffffffffffffff163373ffffffffffffffffffffffffffffffffffffffff16141515156108e7576040517f08c379a00000000000000000000000000000000000000000000000000000000081526004018080602001828103825260158152602001807f63616c6c65642062792062656e6566696369617279000000000000000000000081525060200191505060405180910390fd5b816001600082815260200190815260200160002060040154600160008381526020019081526020016000206003015401421115151561098e576040517f08c379a00000000000000000000000000000000000000000000000000000000081526004018080602001828103825260138152602001807f646561646c696e6520686173207061737365640000000000000000000000000081525060200191505060405180910390fd5b826001600082815260200190815260200160002060080160003373ffffffffffffffffffffffffffffffffffffffff1673ffffffffffffffffffffffffffffffffffffffff16815260200190815260200160002060000160009054906101000a900460ff16151515610a68576040517f08c379a000000000000000000000000000000000000000000000000000000000815260040180806020018281038252600b8152602001807f68617320706c656467656400000000000000000000000000000000000000000081525060200191505060405180910390fd5b600160008581526020019081526020016000206006015434141515610af5576040517f08c379a000000000000000000000000000000000000000000000000000000000815260040180806020018281038252601b8152602001807f496e737566696369656e742066756e647320746f20506c65646765000000000081525060200191505060405180910390fd5b3073ffffffffffffffffffffffffffffffffffffffff166108fc60016000878152602001908152602001600020600601549081150290604051600060405180830381858888f19350505050158015610b51573d6000803e3d6000fd5b506040805190810160405280600015158152602001600015158152506001600086815260200190815260200160002060080160003373ffffffffffffffffffffffffffffffffffffffff1673ffffffffffffffffffffffffffffffffffffffff16815260200190815260200160002060008201518160000160006101000a81548160ff02191690831515021790555060208201518160000160016101000a81548160ff0219169083151502179055509050506001600085815260200190815260200160002060060154600160008681526020019081526020016000206002016000828254019250508190555060016000858152602001908152602001600020600701600081548092919060010191905055503373ffffffffffffffffffffffffffffffffffffffff16847f2cfaa5804a1c2061abb203b223be8a1281c2e15656094b9907cc096db4f14ade60016000888152602001908152602001600020600601546001600089815260200190815260200160002060020154600160008a81526020019081526020016000206007015460405180848152602001838152602001828152602001935050505060405180910390a360016000858152602001908152602001600020600101546001600086815260200190815260200160002060020154101515610dc457837fb920dd6bfae898046b8da32f3ffd1d7cac4b7f1bc4060f6380ee066377b9bc2c60016000878152602001908152602001600020600101546001600088815260200190815260200160002060020154600160008981526020019081526020016000206007015460405180848152602001838152602001828152602001935050505060405180910390a25b50505050565b806001600082815260200190815260200160002060000160009054906101000a900473ffffffffffffffffffffffffffffffffffffffff1673ffffffffffffffffffffffffffffffffffffffff163373ffffffffffffffffffffffffffffffffffffffff16141515610ea4576040517f08c379a00000000000000000000000000000000000000000000000000000000081526004018080602001828103825260198152602001807f63616c6c6564206279206e6f6e2d62656e65666963696172790000000000000081525060200191505060405180910390fd5b5050565b80600160008281526020019081526020016000206004015460016000838152602001908152602001600020600301540142111515610f4e576040517f08c379a00000000000000000000000000000000000000000000000000000000081526004018080602001828103825260178152602001807f646561646c696e6520686173206e6f742070617373656400000000000000000081525060200191505060405180910390fd5b8160016000828152602001908152602001600020600101546001600083815260200190815260200160002060020154101515610ff2576040517f08c379a00000000000000000000000000000000000000000000000000000000081526004018080602001828103825260158152602001807f676f616c20686173206265656e2072656163686564000000000000000000000081525060200191505060405180910390fd5b826001600082815260200190815260200160002060080160003373ffffffffffffffffffffffffffffffffffffffff1673ffffffffffffffffffffffffffffffffffffffff16815260200190815260200160002060000160009054906101000a900460ff1615156110cb576040517f08c379a000000000000000000000000000000000000000000000000000000000815260040180806020018281038252600f8152602001807f686173206e6f7420706c6564676564000000000000000000000000000000000081525060200191505060405180910390fd5b3373ffffffffffffffffffffffffffffffffffffffff166108fc60016000878152602001908152602001600020600601549081150290604051600060405180830381858888f19350505050158015611127573d6000803e3d6000fd5b50600180600086815260200190815260200160002060080160003373ffffffffffffffffffffffffffffffffffffffff1673ffffffffffffffffffffffffffffffffffffffff16815260200190815260200160002060000160016101000a81548160ff0219169083151502179055503373ffffffffffffffffffffffffffffffffffffffff16847f1a92de16999f962803b66ec4a95a8332d6de861aa9804c19d840566dd8760ea960016000888152602001908152602001600020600601546040518082815260200191505060405180910390a350505050565b6000809054906101000a900473ffffffffffffffffffffffffffffffffffffffff1681565b806001600082815260200190815260200160002060040154600160008381526020019081526020016000206003015401421115156112cc576040517f08c379a00000000000000000000000000000000000000000000000000000000081526004018080602001828103825260178152602001807f646561646c696e6520686173206e6f742070617373656400000000000000000081525060200191505060405180910390fd5b816001600082815260200190815260200160002060010154600160008381526020019081526020016000206002015410151515611371576040517f08c379a00000000000000000000000000000000000000000000000000000000081526004018080602001828103825260198152602001807f676f616c20686173206e6f74206265656e20726561636865640000000000000081525060200191505060405180910390fd5b826001600082815260200190815260200160002060080160003373ffffffffffffffffffffffffffffffffffffffff1673ffffffffffffffffffffffffffffffffffffffff16815260200190815260200160002060000160009054906101000a900460ff16151561144a576040517f08c379a000000000000000000000000000000000000000000000000000000000815260040180806020018281038252600f8152602001807f686173206e6f7420706c6564676564000000000000000000000000000000000081525060200191505060405180910390fd5b600060016000868152602001908152602001600020600701546001600087815260200190815260200160002060010154600160008881526020019081526020016000206002015481151561149a57fe5b048115156114a457fe5b0490503373ffffffffffffffffffffffffffffffffffffffff166108fc829081150290604051600060405180830381858888f193505050501580156114ed573d6000803e3d6000fd5b50600180600087815260200190815260200160002060080160003373ffffffffffffffffffffffffffffffffffffffff1673ffffffffffffffffffffffffffffffffffffffff16815260200190815260200160002060000160016101000a81548160ff0219169083151502179055503373ffffffffffffffffffffffffffffffffffffffff16857f12dca7554333fa4ad21e3b145df61273b0a395e857132155c5946c1a4e773be8836040518082815260200191505060405180910390a35050505050565b610100604051908101604052803373ffffffffffffffffffffffffffffffffffffffff16815260200184815260200160008152602001428152602001828152602001600015158152602001838152602001600081525060016000600254815260200190815260200160002060008201518160000160006101000a81548173ffffffffffffffffffffffffffffffffffffffff021916908373ffffffffffffffffffffffffffffffffffffffff1602179055506020820151816001015560408201518160020155606082015181600301556080820151816004015560a08201518160050160006101000a81548160ff02191690831515021790555060c0820151816006015560e082015181600701559050503373ffffffffffffffffffffffffffffffffffffffff166002547f4c4854bb847d28766286855bff1a9b69b5416932f31bb594466c0bf1ee4daca7856000428688604051808681526020018581526020018481526020018381526020018281526020019550505050505060405180910390a360026000815480929190600101919050555050505056fea165627a7a72305820014e544b3f4b161142150039c7864bd4945724fe1e90df3fd9000d83f6f881430029",
  "source": "pragma solidity ^0.5.0;\r\n\r\n/*\r\n    TODO\r\n        Percentage for \"owner\"\r\n        Retroactive pledges through conventional payment systems\r\n*/\r\n\r\ncontract PennySeed {\r\n\r\n    // Events\r\n    event CreatedCampaignEvent (\r\n        uint indexed _campaignIndex,\r\n        address indexed _beneficiary,\r\n        uint256 _goal,\r\n        uint256 _balance,\r\n        uint256 _startTime,\r\n        uint256 _campaignPeriod,\r\n        uint256 _pledgeAmount\r\n    );\r\n    event PledgedToCampaignEvent (\r\n        uint indexed _campaignIndex,\r\n        address indexed _pledger,\r\n        uint256 _pledgeAmount,\r\n        uint256 _balance,\r\n        uint _numberOfPledgers\r\n    );\r\n\r\n    event ReachedGoalEvent (\r\n        uint indexed _campaignIndex,\r\n        uint256 _goal,\r\n        uint256 _balance,\r\n        uint _numberOfPledgers\r\n    );\r\n\r\n    event ClaimedFundsEvent (\r\n        uint indexed _campaignIndex,\r\n        address indexed _beneficiary,\r\n        uint256 _goal,\r\n        uint256 _balance\r\n    );\r\n    event RedeemedRebateEvent (\r\n        uint indexed _campaignIndex,\r\n        address indexed _pledger,\r\n        uint256 _rebateAmount\r\n    );\r\n    event RedeemedRefundEvent (\r\n        uint indexed _campaignIndex,\r\n        address  indexed _pledger,\r\n        uint256 _refundAmount\r\n    );\r\n\r\n    event DeadlineHasPassedEvent (\r\n        uint indexed _campaignIndex,\r\n        bool _hasReachedGoal,\r\n        uint256 _goal,\r\n        uint256 _balance\r\n    );\r\n\r\n    // Globals\r\n    address public owner;\r\n\r\n    struct Pledger {\r\n        bool hasPledged;\r\n        bool hasRedeemed;\r\n    }\r\n\r\n    struct Campaign {\r\n        address payable beneficiary;\r\n\r\n        uint256 goal;\r\n        uint256 balance;\r\n\r\n        uint256 startTime;\r\n        uint256 campaignPeriod;\r\n\r\n        bool hasClaimed;\r\n\r\n        uint256 pledgeAmount;\r\n        uint numberOfPledgers;\r\n        mapping (address => Pledger) pledgers;\r\n    }\r\n\r\n    mapping (uint => Campaign) public campaigns;\r\n    uint public numberOfCampaigns;\r\n\r\n    // uint public ownersCut; // ([000...] => [111...]) => (0% => 100%)\r\n\r\n    constructor () public {\r\n        owner = msg.sender;\r\n    }\r\n\r\n    // Modifers\r\n    modifier onlyOwner {\r\n        require(msg.sender == owner);\r\n        _;\r\n    }\r\n\r\n    modifier isBeneficiary (uint _campaignIndex) {\r\n        require(msg.sender == campaigns[_campaignIndex].beneficiary, \"called by non-beneficiary\");\r\n        _;\r\n    }\r\n    modifier isNotBeneficiary (uint _campaignIndex) {\r\n        require(msg.sender != campaigns[_campaignIndex].beneficiary, \"called by beneficiary\");\r\n        _;\r\n    }\r\n\r\n    modifier hasPledged (uint _campaignIndex) {\r\n        require(campaigns[_campaignIndex].pledgers[msg.sender].hasPledged, \"has not pledged\");\r\n        _;\r\n    }\r\n    modifier hasNotPledged (uint _campaignIndex) {\r\n        require(!campaigns[_campaignIndex].pledgers[msg.sender].hasPledged, \"has pledged\");\r\n        _;\r\n    }\r\n\r\n    modifier deadlineHasPassed (uint _campaignIndex) {\r\n        require(now > (campaigns[_campaignIndex].startTime + campaigns[_campaignIndex].campaignPeriod), \"deadline has not passed\");\r\n        _;\r\n    }\r\n    modifier deadlineHasNotPassed (uint _campaignIndex) {\r\n        require(now <= (campaigns[_campaignIndex].startTime + campaigns[_campaignIndex].campaignPeriod), \"deadline has passed\");\r\n        _;\r\n    }\r\n\r\n    modifier goalHasBeenReached (uint _campaignIndex) {\r\n        require(campaigns[_campaignIndex].balance >= campaigns[_campaignIndex].goal, \"goal has not been reached\");\r\n        _;\r\n    }\r\n    modifier goalHasNotBeenReached (uint _campaignIndex) {\r\n        require(campaigns[_campaignIndex].balance < campaigns[_campaignIndex].goal, \"goal has been reached\");\r\n        _;\r\n    }\r\n\r\n    modifier hasRedeemed (uint _campaignIndex) {\r\n        require(campaigns[_campaignIndex].pledgers[msg.sender].hasRedeemed);\r\n        _;\r\n    }\r\n    modifier hasNotRedeemed (uint _campaignIndex) {\r\n        require(!campaigns[_campaignIndex].pledgers[msg.sender].hasRedeemed);\r\n        _;\r\n    }\r\n\r\n    modifier hasClaimed (uint _campaignIndex) {\r\n        require(campaigns[_campaignIndex].hasClaimed);\r\n        _;\r\n    }\r\n    modifier hasNotClaimed (uint _campaignIndex) {\r\n        require(!campaigns[_campaignIndex].hasClaimed);\r\n        _;\r\n    }\r\n\r\n    // Methods\r\n    function createCampaign (uint256 _goal, uint256 _pledgeAmount, uint256 _campaignPeriod) public {\r\n        campaigns[numberOfCampaigns] = Campaign (\r\n            msg.sender,\r\n\r\n            _goal,\r\n            0,\r\n\r\n            now,\r\n            _campaignPeriod,\r\n\r\n            false,\r\n\r\n            _pledgeAmount,\r\n            0\r\n        );\r\n\r\n        emit CreatedCampaignEvent (\r\n            numberOfCampaigns,\r\n            msg.sender,\r\n            _goal, 0,\r\n            now,\r\n            _campaignPeriod,\r\n            _pledgeAmount\r\n        );\r\n\r\n        numberOfCampaigns++;\r\n    }\r\n    function pledgeToCampaign (uint _campaignIndex) public payable isNotBeneficiary(_campaignIndex) deadlineHasNotPassed(_campaignIndex) hasNotPledged(_campaignIndex) {\r\n        require(msg.value == campaigns[_campaignIndex].pledgeAmount, \"Insuficient funds to Pledge\");\r\n        address(this).transfer(campaigns[_campaignIndex].pledgeAmount);\r\n\r\n        campaigns[_campaignIndex].pledgers[msg.sender] = Pledger(false, false);\r\n        campaigns[_campaignIndex].balance += campaigns[_campaignIndex].pledgeAmount;\r\n        campaigns[_campaignIndex].numberOfPledgers++;\r\n\r\n        emit PledgedToCampaignEvent (\r\n            _campaignIndex,\r\n            msg.sender,\r\n            campaigns[_campaignIndex].pledgeAmount,\r\n            campaigns[_campaignIndex].balance,\r\n            campaigns[_campaignIndex].numberOfPledgers\r\n        );\r\n\r\n        if(campaigns[_campaignIndex].balance >= campaigns[_campaignIndex].goal) {\r\n            emit ReachedGoalEvent (\r\n                _campaignIndex,\r\n                campaigns[_campaignIndex].goal,\r\n                campaigns[_campaignIndex].balance,\r\n                campaigns[_campaignIndex].numberOfPledgers\r\n            );  \r\n        }\r\n    }\r\n\r\n    function approveRetroactivePledge(uint _campaignIndex) public isBeneficiary(_campaignIndex) {\r\n        // FILL\r\n    }\r\n\r\n    function pollForDeadline (uint _campaignIndex) public deadlineHasPassed(_campaignIndex) {\r\n        emit DeadlineHasPassedEvent (\r\n            _campaignIndex,\r\n            (campaigns[_campaignIndex].balance >= campaigns[_campaignIndex].goal),\r\n            campaigns[_campaignIndex].goal,\r\n            campaigns[_campaignIndex].balance\r\n        );\r\n    }\r\n    \r\n    function claimFunds (uint _campaignIndex) public goalHasBeenReached(_campaignIndex) isBeneficiary(_campaignIndex) hasNotClaimed(_campaignIndex) {\r\n        // transfer (goal*0.99) to sender, and (goal*0.01) to ownder for a \"cut\"\r\n        msg.sender.transfer(campaigns[_campaignIndex].goal);\r\n        campaigns[_campaignIndex].hasClaimed = true;\r\n\r\n        emit ClaimedFundsEvent (\r\n            _campaignIndex,\r\n            msg.sender,\r\n            campaigns[_campaignIndex].goal,\r\n            campaigns[_campaignIndex].balance\r\n        );\r\n    }\r\n    function redeemRebate (uint _campaignIndex) public deadlineHasPassed(_campaignIndex) goalHasBeenReached(_campaignIndex) hasPledged(_campaignIndex) {\r\n        uint256 rebate = (campaigns[_campaignIndex].balance / campaigns[_campaignIndex].goal) / campaigns[_campaignIndex].numberOfPledgers;\r\n        msg.sender.transfer(rebate);\r\n\r\n        campaigns[_campaignIndex].pledgers[msg.sender].hasRedeemed = true;\r\n\r\n        emit RedeemedRebateEvent (\r\n            _campaignIndex,\r\n            msg.sender,\r\n            rebate\r\n        );\r\n    }\r\n    function redeemRefund (uint _campaignIndex) public deadlineHasPassed(_campaignIndex) goalHasNotBeenReached(_campaignIndex) hasPledged(_campaignIndex) {\r\n        msg.sender.transfer(campaigns[_campaignIndex].pledgeAmount);\r\n        campaigns[_campaignIndex].pledgers[msg.sender].hasRedeemed = true;\r\n\r\n        emit RedeemedRefundEvent (\r\n            _campaignIndex,\r\n            msg.sender,\r\n            campaigns[_campaignIndex].pledgeAmount\r\n        );\r\n    }\r\n\r\n    // Helpers\r\n    function () external payable {}\r\n}",
  "sourcePath": "C:/Users/carto/Documents/GitHub/Penny-Seed/contracts/PennySeed.sol",
  "compiler": {
    "name": "solc",
    "version": "0.5.0+commit.1d4f565a.Emscripten.clang"
  },
  "schemaVersion": "3.0.8",
  "updatedAt": "2019-05-02T20:11:49.098Z",
  "devdoc": {
    "methods": {}
  },
  "userdoc": {
    "methods": {}
  }
}